:020000023000CC
:10E000000D9489F10D94B2F10D94B2F10D94B2F129
:10E010000D94B2F10D94B2F10D94B2F10D94B2F1F0
:10E020000D94B2F10D94B2F10D94B2F10D94B2F1E0
:10E030000D94B2F10D94B2F10D94B2F10D94B2F1D0
:10E040000D94B2F10D94B2F10D94B2F10D94B2F1C0
:10E050000D94B2F10D94B2F10D94B2F10D94B2F1B0
:10E060000D94B2F10D94B2F10D94B2F10D94B2F1A0
:10E070000D94B2F10D94B2F10D94B2F10D94B2F190
:10E080000D94B2F10D94B2F10D94B2F10D94B2F180
:10E090000D94B2F10D94B2F10D94B2F10D94B2F170
:10E0A0000D94B2F10D94B2F10D94B2F10D94B2F160
:10E0B0000D94B2F10D94B2F10D94B2F10D94B2F150
:10E0C0000D94B2F10D94B2F10D94B2F10D94B2F140
:10E0D0000D94B2F10D94B2F10D94B2F10D94B2F130
:10E0E0000D94B2F12A00593D506F727420626C6930
:10E0F0006E6B00563D73686F7720696E746572723F
:10E1000075707420566563746F727300523D447568
:10E110006D702052414D00513D51756974004C3D68
:10E120004C69737420492F4F20506F7274730048EC
:10E130003D48656C7000463D44756D7020464C410D
:10E14000534800453D44756D7020454550524F4D34
:10E1500000423D426C696E6B204C454400403D4599
:10E160004550524F4D2074657374003F3D435055E8
:10E1700020737461747300303D5A65726F2061645E
:10E18000647200504F5254004545206572722063FE
:10E190006E743D0052656164696E672045450057A5
:10E1A00072697474696E672045450020004D75736F
:10E1B000742062652061206C657474657200506F14
:10E1C0007274206E6F7420737570706F72746564F2
:10E1D000005768617420706F72743A006A6D702025
:10E1E00000726A6D702020006E6F20766563746F18
:10E1F00072005623202020414444522020206F707A
:10E2000020636F64652020202020696E737472750E
:10E210006374696F6E2061646472202020496E749B
:10E2200065727275707400342E382E3300312E38BA
:10E230002E30005365702020312032303134004CB4
:10E240006F636B20667573652020203D2000457844
:10E25000742066757365202020203D200048696782
:10E260006820667573652020203D20004C6F772064
:10E2700066757365202020203D20004350552049BD
:10E28000442020202020203D200047434320566585
:10E290007273696F6E203D2000415652204C6962B6
:10E2A00043205665723D20005F5F4156525F4152E8
:10E2B00043485F5F3D2000435055205479706520EE
:10E2C0002020203D2000436F6D70696C6564206FD5
:10E2D0006E203D20004875683F00426F6F746C6F80
:10E2E000616465723E0041726475696E6F20657885
:10E2F000706C6F7265722073746B353030563220DB
:10E300006279204D4C530041546D6567613235365A
:10E31000300011241FBECFEFD1E2DEBFCDBF01E040
:10E320000CBF12E0A0E0B2E0EAE8F7EF03E00BBFB9
:10E3300002C007900D92A430B107D9F712E0A4E013
:10E34000B2E001C01D92A231B107E1F70F9410F3C2
:10E350000D94C3FB01E20EBF0FEF0DBF11241FBED2
:10E360000D9410F30D9400F08093C6008091C000CE
:10E3700086FFFCCF8091C00080648093C000089528
:10E3800020E030E02817390749F0E7EEF3E0319755
:10E39000F1F700C000002F5F3F4FF4CF0895CF93F7
:10E3A000DF93EC01C60FD11DAE01662757FD6095C6
:10E3B000762F6BBFFA018791882321F021960F9465
:10E3C000B4F1F2CFDF91CF9108958DE00F94B4F1C5
:10E3D0008AE00D94B4F10F94CFF10D94E5F1CF9351
:10E3E000DF93EC018991882319F00F94B4F1FACFEF
:10E3F000DF91CF910895CF93C82F82958F7090E3CE
:10E40000980F9A3310F097E3980F892F0F94B4F177
:10E41000CF7080E38C0F8A3310F087E38C0FCF919D
:10E420000D94B4F10F931F93CF93DF93EC018B0105
:10E43000853691051CF4633071054CF0CE0164E61D
:10E4400070E00F9477FB80E3860F0F94B4F1CB302C
:10E45000D1051CF4023011056CF0CE0164E670E0C9
:10E460000F9477FB6AE070E00F9477FB80E3860FF0
:10E470000F94B4F1CE016AE070E00F9477FB805DF9
:10E48000DF91CF911F910F910D94B4F18091C00055
:10E4900087FFFCCF8091C6000895CF93C82F60E01E
:10E4A00083E891EE0F94CFF18C2F0F94B4F1CF91BC
:10E4B0000D94E5F14F925F926F927F92AF92BF926F
:10E4C000CF92DF92EF92FF920F931F93CF93DF9340
:10E4D000CDB7DEB766970FB6F894DEBF0FBECDBFDF
:10E4E000C82E80E1D82EA12C7E0181E1E80EF11C1E
:10E4F0009EE2B92E41305105E1E06E07710558F0FA
:10E50000862F4B8B5C8B6D8B7E8B0F94FBF17E8902
:10E510006D895C894B89852F4B8B5C8B6D8B7E8BDA
:10E520000F94FBF14B89842F0F94FBF180E20F9441
:10E53000B4F18DE20F94B4F180E20F94B4F119823A
:10E540008E010F5F1F4F4B895C896D897E892A017F
:10E550003B01F1E0CF1661F0CF1630F082E0C81237
:10E5600013C0F201A08010C06BBEF201A7900CC0D6
:10E57000C2014B8B5C8B6D8B7E8B0F94ADFBA82EF9
:10E580004B895C896D897E898A2D4B8B5C8B6D8B69
:10E590007E8B0F94FBF180E20F94B4F180EE8A0D34
:10E5A0004B895C896D897E89F8018F3510F4A082D2
:10E5B00001C0B082FFEF4F1A5F0A6F0A7F0A0F5F38
:10E5C0001F4F0E151F0509F0C4CF405F5F4F6F4FFF
:10E5D0007F4F198ACE0101964B8B5C8B6D8B7E8BA6
:10E5E0000F94EFF10F94E5F1DA944B895C896D8912
:10E5F0007E89D1107FCF66960FB6F894DEBF0FBE2E
:10E60000CDBFDF91CF911F910F91FF90EF90DF90E1
:10E61000CF90BF90AF907F906F905F904F90089594
:10E62000CF93DF93CDB7DEB7C453D1400FB6F89484
:10E63000DEBF0FBECDBF01E20EBF0FEF0DBF94B71F
:10E64000F894A89514BE8091600088618093600062
:10E6500010926000789493FF05C0E0910402F0915D
:10E6600005021995579A5F9A8091C0008260809345
:10E67000C00080E18093C40088E18093C100000065
:10E68000C12CD12C7601A3EE8A2EADE09A2EA12CBE
:10E69000B12C00E010E08091C00087FF04C0C801E9
:10E6A0000196B9F326C001151105C9F722E02A9594
:10E6B000F1F700C03FEFC31AD30AE30AF30A91E06F
:10E6C00080E041E2C4164EE4D406E104F10408F40B
:10E6D00090E0092F182FC701B601A50194010F94EE
:10E6E0008BFB672B682B692BB1F68BB180588BB9EC
:10E6F000D2CF8130910511F00D9446FBC45DDE4F01
:10E7000019821882CC52D140A12CB12CC65DDE4FAB
:10E710001882CA52D140812C212C312CCE5DDE4F83
:10E72000188219821A821B82C252D140C12CD12C6C
:10E73000760120E030E0A9014BBFF90147915691E5
:10E74000CE5CDE4F59834883C253D14020E030E095
:10E7500060E00197E9F080E090E0DC014091C000CA
:10E7600047FD16C00196A11DB11D813059E09507E6
:10E770005DE3A507B10590F3CE5CDE4F88819981FA
:10E78000C253D140019639F3EE27FF270994E3CF16
:10E790008091C600C45DDE4FE881F981CC52D14042
:10E7A0003196C45DDE4FF983E883CC52D14081328B
:10E7B00009F01AC53A9708F017C5FFEFAF1ABF0A5C
:10E7C00043E0A416B10409F011C505E010E0F9E139
:10E7D000AF2EB12C81E20F94B4F151E0A51AB1082B
:10E7E000C9F70F94E5F10150110989F710920E0253
:10E7F00010920F02109210021092110210920A024F
:10E8000010920B0210920C0210920D02109206024E
:10E8100010920702109208021092090260E086EE40
:10E8200092EE0F94EBF11FEF60E08AED92EE0F9401
:10E83000CFF10F9446F2082F803608F00F750032A2
:10E8400030F0802F0F94B4F180E20F94B4F10634CD
:10E8500009F4BAC108F09BC0003409F40CC108F0F7
:10E860008FC0003309F4F1C00F3309F0B7C462E080
:10E870008BE691EE0F94EBF160E086EE92EE0F9452
:10E88000EBF160E086EC92EE0F94CFF160E083E371
:10E8900092EE0F94EBF160E087EB92EE0F94CFF1E4
:10E8A00060E087E093EE0F94EBF160E088EA92EE8F
:10E8B0000F94CFF186E30F94B4F10F94E5F160E08B
:10E8C0008AE892EE0F94CFF160E087E292EE0F9427
:10E8D000EBF160E089E992EE0F94CFF160E08DE218
:10E8E00092EE0F94EBF160E08BE792EE0F94CFF194
:10E8F0008EE10F94FBF188E90F94FBF181E00F9416
:10E90000FBF10F94E5F160E08CE692EE0F94CFF10D
:10E9100029E0E0E0F0E02093570084910F94FBF1B0
:10E920000F94E5F160E08DE592EE0F94CFF129E0D0
:10E93000E3E0F0E02093570084910F94FBF10F94F3
:10E94000E5F160E08EE492EE0F94CFF1E2E0F0E0CA
:10E9500039E03093570084910F94FBF10F94E5F167
:10E9600060E08FE392EE0F94CFF1E1E0F0E049E058
:10E970004093570084910F94FBF10F94E5F154CF2D
:10E98000023409F4DDC0053409F4F4C027C40135AC
:10E9900009F47EC168F5083409F43AC10C3409F071
:10E9A0001DC462E08EE191EE0F94EBF181E40F94CF
:10E9B0004DF282E40F944DF283E40F944DF284E41F
:10E9C0000F944DF285E40F944DF286E40F944DF2CE
:10E9D00087E40F944DF288E40F944DF28AE40F948B
:10E9E0004DF28BE40F944DF28CE40F944DF21CCF5A
:10E9F000063509F457C1093509F4F6C2023509F0A4
:10EA0000EDC362E08CE091EE0F94EBF140910E02C9
:10EA100050910F02609110027091110282E00F94E8
:10EA20005AF280910E0290910F02A0911002B091C3
:10EA300011029F5FAF4FBF4F80930E0290930F0262
:10EA4000A0931002B0931102EFCE62E087E791EE3F
:10EA50000F94EBF110920A0210920B0210920C022A
:10EA600010920D0210920E0210920F0210921002DC
:10EA7000109211025CC062E08DE591EE0F94EBF113
:10EA800060E08FE991EE0F94EBF10F94E5F1A12C8A
:10EA9000B12CC5016AE170E00F9463FB01E4080F3B
:10EAA000602FC5010F94B5FB802F0F94B4F15FEF79
:10EAB000A51AB50AA11482E0B80659F70F94E5F13A
:10EAC0000F94E5F160E084E991EE0F94EBF10F947F
:10EAD000E5F1812C912CA12CB12CC5010F94ADFB3B
:10EAE000082F0F94B4F1C5016AE170E00F9463FB45
:10EAF0008F5B081719F09FEF891A990AAFEFAA1ACE
:10EB0000BA0AA114B2E0BB0641F70F94E5F10F94E5
:10EB1000E5F160E088E891EE0F94CFF161E070E0FC
:10EB2000C4010F9412F20F94E5F10F94E5F11092E5
:10EB3000060210920702109208021092090274CE87
:10EB400062E081E591EE0F94EBF1579A5F9A809124
:10EB5000C00087FD0CC05F9884E690E00F94C0F180
:10EB60005F9A84E690E00F94C0F1F1CF12B80F9451
:10EB700046F25ACE62E083E491EE0F94EBF14091BD
:10EB8000060250910702609108027091090281E02B
:10EB90000F945AF28091060290910702A091080208
:10EBA000B09109029F5FAF4FBF4F809306029093D1
:10EBB0000702A0930802B093090281159041A105B4
:10EBC000B10508F431CEB3CF62E086E391EE0F9445
:10EBD000EBF140910A0250910B0260910C0270918E
:10EBE0000D0280E00F945AF280910A0290910B027C
:10EBF000A0910C02B0910D029F5FAF4FBF4F809369
:10EC00000A0290930B02A0930C02B0930D020CCE5B
:10EC100062E08FE291EE0F94EBF160E087E791EE16
:10EC20000F94EBF160E08BE691EE0F94EBF160E076
:10EC30008DE591EE0F94EBF160E081E591EE0F949C
:10EC4000EBF160E083E491EE0F94EBF160E086E39A
:10EC500091EE0F94EBF160E08FE291EE0F94EBF107
:10EC600060E08EE191EE0F94EBF160E087E191EED0
:10EC70000F94EBF160E08CE091EE0F94EBF160E02B
:10EC800083EF90EE0F94EBF160E086EE90EEA9C278
:10EC900062E087E191EE0F94EBF1A12CB12C992465
:10ECA0009394E9C262E083EF90EE0F94EBF160E0A1
:10ECB00087E093EE0F94EBF160E082EF91EE0F941A
:10ECC000EBF1CA5DDE4F19821882C652D140412C49
:10ECD000512C3201A30192015695479537952795FE
:10ECE000C25DDE4F288339834A835B83CE52D14095
:10ECF000CA5DDE4F48815981C652D1404F5F5F4F98
:10ED0000CA5DDE4F59834883C652D14062E070E04D
:10ED1000CA010F9412F280E20F94B4F18DE20F94C5
:10ED2000B4F180E20F94B4F180E00F94FBF1C25D86
:10ED3000DE4F8881CE52D1400F94FBF180E20F94D8
:10ED4000B4F18DE30F94B4F180E20F94B4F16BBE93
:10ED5000F2010791D301C2010196A11DB11DABBF04
:10ED6000FC019791B301A2014E5F5F4F6F4F7F4F40
:10ED70006BBFFA012791C25EDE4F2883CE51D1408E
:10ED80005301420133E0830E911CA11CB11CABBEA8
:10ED9000F4014791C55DDE4F4883CB52D14054E02A
:10EDA000450E511C611C711C492F50E060E070E061
:10EDB0008824942EA52EB62E800E911CA11CB11C69
:10EDC000892FCC5CDE4F9883C453D1400F94FBF164
:10EDD00080E20F94B4F1802F0F94FBF180E20F9446
:10EDE000B4F1C55DDE4F8881CB52D1400F94FBF169
:10EDF00080E20F94B4F1C25EDE4F8881CE51D140E3
:10EE00000F94FBF180E20F94B4F1CC5CDE4F98815B
:10EE1000C453D1408FEF88169806A104B10431F491
:10EE200060E088EE91EE0F94CFF1D1C0B501A4015E
:10EE30004427507C662777274115504C61057105A2
:10EE400009F040C0A50194013F7344275527C25ED5
:10EE5000DE4F288339834A835B83CE51D1404901F9
:10EE60005A01C25DDE4F288139814A815B81CE52D1
:10EE7000D140820E931EA41EB51E880C991CAA1C9C
:10EE8000BB1C60E081EE91EE0F94CFF1C15EDE4FCE
:10EE90008881CF51D1400F94FBF1C25EDE4F888153
:10EEA000CE51D1400F94FBF180E20F94B4F18EE388
:10EEB0000F94B4F180E00F94FBF1892D0F94FBF1D6
:10EEC000882D83C0B501A4014E705E7F6627772729
:10EED0004C3054496105710509F079C0C55DDE4FBC
:10EEE0004881CB52D140842E912CA12CB12CBA2C2C
:10EEF000A92C982C8824C25EDE4F5881CE51D14077
:10EF0000850E911CA11CB11C402F417050E060E0A7
:10EF100070E0BA0155274427840E951EA61EB71E21
:10EF2000402F407F50E060E070E0F1E1440F551F5A
:10EF3000661F771FFA95D1F7840E951EA61EB71E81
:10EF4000892F817090E0A0E0B0E005E1880F991F63
:10EF5000AA1FBB1F0A95D1F7880E991EAA1EBB1EB9
:10EF6000A5019401220F331F441F551FC25EDE4FBF
:10EF7000288339834A835B83CE51D14060E08CED96
:10EF800091EE0F94CFF18A2D0F94FBF1892D0F9400
:10EF9000FBF1882D0F94FBF180E20F94B4F18EE326
:10EFA0000F94B4F1C05EDE4F8881C052D1400F94FF
:10EFB000FBF1C15EDE4F8881CF51D1400F94FBF150
:10EFC000C25EDE4F8881CE51D1400F94FBF10F9489
:10EFD000E5F1CA5DDE4F48815981C652D1404933BF
:10EFE000510509F077CE20CC62E086EE90EE0F94CA
:10EFF000EBF160E081ED91EE0F94CFF10F9446F2CA
:10F00000082F0F75802F0F94B4F10F94E5F18FEB5B
:10F01000800F8A3108F0DEC0063409F471C098F41C
:10F02000033409F441C038F4013419F1023409F011
:10F03000CDC014B92BC0043409F445C0053409F01F
:10F04000C5C01DB94FC00A3409F489C048F407345B
:10F0500009F465C0083409F0B9C0109301016EC00D
:10F060000B3409F48FC00C3409F0B0C010930A01BE
:10F070009CC011B98091C00087FD78CD82B1809588
:10F0800082B988EC90E00F94C0F1F4CF8091C00079
:10F0900087FD08C085B1809585B988EC90E00F9414
:10F0A000C0F1F4CF15B863CD17B98091C00087FDCA
:10F0B00008C088B1809588B988EC90E00F94C0F1C1
:10F0C000F4CF18B854CD1AB98091C00087FD08C09C
:10F0D0008BB180958BB988EC90E00F94C0F1F4CFA0
:10F0E0001BB845CD8091C00087FD08C08EB18095CA
:10F0F0008EB988EC90E00F94C0F1F4CF1EB837CDF4
:10F1000010BB8091C00087FD08C081B3809581BB92
:10F1100088EC90E00F94C0F1F4CF11BA28CD13BB66
:10F120008091C00087FD08C084B3809584BB88ECC3
:10F1300090E00F94C0F1F4CF14BA19CD8091C000C3
:10F1400087FD0AC08091020180958093020188ECBE
:10F1500090E00F94C0F1F2CF1092020108CD10930D
:10F1600004018091C00087FD0AC08091050180954F
:10F170008093050188EC90E00F94C0F1F2CF1092DB
:10F180000501F5CC109307018091C00087FD0AC0EE
:10F190008091080180958093080188EC90E00F949D
:10F1A000C0F1F2CF10920801E2CC8091C00087FD3F
:10F1B0000AC080910B01809580930B0188EC90E050
:10F1C0000F94C0F1F2CF10920B01D1CC60E08EEB26
:10F1D00091EE07C060E08DEA91EE03C060E085ED3E
:10F1E00092EE0F94EBF120CBA12CB12C633001F106
:10F1F00020F4613071F038F014C0653029F1E0F08E
:10F20000663099F135C08B3109F454C280E090E04A
:10F21000A0CA8826C65DDE4F8883CA52D14062E00C
:10F22000F5CF282F30E0322F2227882663E0EECF5B
:10F23000282B882664E0EACF8E3009F03FC288266A
:10F24000212C312C65E0E2CFA1014F5F5F4FE1E05F
:10F25000F0E0EC0FFD1FE20DF31D808388264217BE
:10F26000530709F42DC21A01D1CF881127C202C059
:10F27000673061F6912C2981233109F4DCC060F5F7
:10F28000263009F4C5C0F8F4223009F4D2C0233086
:10F2900009F463C0213009F0B1C11A8288E08B8380
:10F2A00081E48C8386E58D8382E58E8389E48F8378
:10F2B00083E5888780E589878FE58A8782E38B8766
:10F2C0000BE010E09FC1213109F454C008F093C055
:10F2D000203109F4AEC092C1283109F467C048F466
:10F2E000253109F4A8C008F440C1263109F43DC114
:10F2F00085C12A3109F44EC008F46CC02B3109F4E1
:10F300003CC02D3109F07AC18D81803339F49F8161
:10F310009923A9F09130A9F4E8E916C0982F9075C7
:10F3200091F0803519F4E0E0F0E004C0883559F43C
:10F33000E3E0F0E099E090935700E49105C0EEE13E
:10F3400003C0E1E001C0E0E01A821B828C831D82D1
:10F35000EE831F8207E010E055C1EA81E059E330F7
:10F3600028F4F0E0E050FE4F808101C080E01A8276
:10F370008B833EC0992493945CC08D81882321F0B7
:10F38000813021F488E903C08EE101C081E01A8256
:10F390008B8308C01A82E1E0F0E089E08093570097
:10F3A000E491EB831C8204E010E02CC18B8180355A
:10F3B00049F48C81883019F4E2E0F0E005C0E0E027
:10F3C000F0E002C0E3E0F0E089E080935700E491D0
:10F3D0001A82E7CF8D81836C99E0E1E0F0E0082E9E
:10F3E00090935700E89507B600FCFDCF1A821B8268
:10F3F00003E010E007C180EC8A8302E010E0CE5DFC
:10F40000DE4F188219821A821B82C252D140FAC082
:10F410008A81CB80D12CE12CF12C7601DD24CC2407
:10F42000F82A8D81C82A8C81D82ACC0CDD1CEE1CD0
:10F43000FF1C1A82E5C00A8110E0102F00278B8183
:10F44000082B233109F05BC0CE5DDE4F2881398166
:10F450004A815B81C252D140211580EC380783E09C
:10F4600048075105E8F483E0F90140935B0080937D
:10F470005700E89507B600FCFDCFCE5DDE4F288132
:10F4800039814A815B81C252D1403F5F4F4F5F4F0C
:10F49000CE5DDE4F288339834A835B83C252D140DD
:10F4A0002B8526013701CE010B9641E0DC01129637
:10F4B000CD01FD013197508130E0352B0901F2017A
:10F4C00060925B0040935700E895112432E0430EB0
:10F4D000511C611C711C0250110911F02C91E6CFD6
:10F4E00085E0F601E0925B0080935700E89507B64F
:10F4F00000FCFDCF81E180935700E89532C0A70161
:10F5000096015695479537952795CA5DDE4F288316
:10F5100039834A835B83C652D140AE01455F5F4F5A
:10F520003A01412C512C4016510689F0D3016D91BE
:10F530003D01CA5DDE4F88819981C652D140840D5C
:10F54000951D0F94B5FBBFEF4B1A5B0AECCF612CF6
:10F55000712C440C551C661C771C4C0C5D1C6E1CDD
:10F560007F1C1A82730162014BC08A8190E0982F40
:10F5700088273B81832B8C010D5F1F4F1A8224311A
:10F5800099F4DE011396EBBEF601279136912C9388
:10F590001296FD0131973083E2E0CE0ED11CE11CC2
:10F5A000F11C029781F728C0FE0133969C01B70138
:10F5B000A60141BD452E562E672E772442BC4F5FD3
:10F5C0005F4F6F4F7F4FF89AA0B5A193215031093B
:10F5D00081F7AC014150510960E070E04F5F5F4F2F
:10F5E0006F4F7F4FC40ED51EE61EF71EA3E0B0E09E
:10F5F000AC0FBD1FA80FB91F1C9204C080EC8A83FA
:10F6000002E010E08BE10F94B4F1C65DDE4F88811B
:10F61000CA52D1400F94B4F1812F0F94B4F1802FCE
:10F620000F94B4F18EE00F94B4F195E1892EC65D8C
:10F63000DE4F2881CA52D140822680268126AE0123
:10F640004F5F5F4F3A01040F151F6016710641F0BE
:10F65000D3015D903D01852D0F94B4F18524F5CF44
:10F66000882D0F94B4F1C65DDE4F2881CA52D14077
:10F670002F5FC65DDE4F2883CA52D1408BB18058C0
:10F680008BB9911003C080E090E060C857985F98F4
:10F6900084E690E00F94C0F100008091C0008D7F5F
:10F6A0008093C00081E180935700E895EE27FF2703
:10F6B0000994FFCF8BE1882E61E0A8CD60E0A6CD54
:10F6C000190166E0A3CDAA1BBB1B51E107C0AA1F0D
:10F6D000BB1FA617B70710F0A61BB70B881F991FF3
:10F6E0005A95A9F780959095BC01CD01089597FB97
:10F6F000072E16F4009407D077FD09D00F9463FB12
:10F7000007FC05D03EF4909581959F4F0895709524
:10F7100061957F4F0895A1E21A2EAA1BBB1BFD0124
:10F720000DC0AA1FBB1FEE1FFF1FA217B307E407E0
:10F73000F50720F0A21BB30BE40BF50B661F771F38
:10F74000881F991F1A9469F7609570958095909518
:10F750009B01AC01BD01CF010895F999FECF92BD87
:10F7600081BDF89A992780B50895262FF999FECF83
:10F770001FBA92BD81BD20BD0FB6F894FA9AF99ACE
:0AF780000FBE01960895F894FFCF24
:04F78A000F020A0060
:040000033000E000E9
:00000001FF
